:100000000C9434000C9451000C9451000C94510049
:100010000C9451000C9451000C9451000C9451001C
:100020000C9451000C9451000C9451000C9451000C
:100030000C9451000C9451000C9451000C945100FC
:100040000C9451000C9451000C9451000C945100EC
:100050000C9451000C9451000C9451000C945100DC
:100060000C9451000C94510011241FBECFEFD8E026
:10007000DEBFCDBF13E0A0E0B1E0E8EEFEE002C0DD
:1000800005900D92A83EB107D9F723E0A8EEB3E0A2
:1000900001C01D92A93EB207E1F70E9458050C94D9
:1000A00072070C940000EF92FF920F931F93CF936F
:1000B000DF9300D0CDB7DEB78A0169837A830E94CF
:1000C000A00080E693E00E94A00069817A8110166A
:1000D00011065CF47B010E0D1F1DF70181917F015C
:1000E0000E948401E016F106C1F78CEA93E00F90BC
:1000F0000F90DF91CF911F910F91FF90EF900C9493
:10010000A0001092C50089E18093C40088E180932B
:10011000C10008959091E80391110BC01092C500A1
:1001200099E19093C40098E19093C10091E090937D
:10013000E8039091C00095FFFCCF8093C60008951E
:10014000FC0120812223C9F0319659E148E131E0D8
:100150008091E803811108C01092C5005093C4003B
:100160004093C1003093E8039091C00095FFFCCF0D
:100170002093C60021912111EBCF08952F923F9239
:100180004F925F926F927F928F929F92AF92BF92A7
:10019000CF92DF92EF92FF920F931F93CF93DF9353
:1001A000CDB7DEB76A970FB6F894DEBF0FBECDBFEE
:1001B000922E832E742E652E562E472E382E292EE3
:1001C000A0E00E94590709F468C01D8ACE01459637
:1001D0009A8F898FE4E1F0E0F88FEF8B05C0EF890B
:1001E000F88DEF2B09F488C08F89988D0197988F2F
:1001F0008F8B8AE0A82EB12CC12CD12CE12CF12CB4
:1002000000E010E0292D382D472D562D652D742D39
:10021000832D922D0E94EE06205D2E8BE98DFA8DA6
:100220002293FA8FE98F292D382D472D562D652DD4
:10023000742D832D922D0E94F006922E832E742E03
:10024000652E562E472E382E292EA0E00E945907E3
:1002500031F6E1E0F0E0EC0FFD1F8F89988DE80F9B
:10026000F91F319639E128E191E08091E80381118D
:1002700008C01092C5003093C4002093C100909331
:10028000E8038091C00085FFFCCF8E898093C60073
:1002900081918E8B8111E9CF16C08091E803811185
:1002A0000BC01092C50089E18093C40088E180935F
:1002B000C10081E08093E8038091C00085FFFCCFFE
:1002C00080E38093C6006A960FB6F894DEBF0FBE37
:1002D000CDBFDF91CF911F910F91FF90EF90DF90F5
:1002E000CF90BF90AF909F908F907F906F905F90D6
:1002F0004F903F902F900895F981FE8BFE0131962B
:100300008E898111AECFDFCF982F92959F709A3052
:100310009CF520E3290F9091E80391110BC01092F6
:10032000C50099E19093C40098E19093C10091E0D9
:100330009093E8039091C00095FFFCCF2093C600F6
:100340008F708A30BCF4805D9091E80391110BC0EE
:100350001092C50099E19093C40098E19093C10078
:1003600091E09093E8039091C00095FFFCCF8093BB
:10037000C6000895895CE8CF27E3290FCCCF292F49
:1003800022952F702A3008F06EC030E3320F209192
:10039000E80321110BC01092C50029E12093C4008D
:1003A00028E12093C10021E02093E8032091C000C0
:1003B00025FFFCCF3093C6009F709A300CF051C0DF
:1003C000905D2091E80321110BC01092C50029E136
:1003D0002093C40028E12093C10021E02093E8038A
:1003E0002091C00025FFFCCF9093C600982F9295D6
:1003F0009F709A3098F520E3290F9091E8039111AE
:100400000BC01092C50099E19093C40098E19093BD
:10041000C10091E09093E8039091C00095FFFCCF5C
:100420002093C6008F708A30BCF4805D9091E80301
:1004300091110BC01092C50099E19093C40098E10E
:100440009093C10091E09093E8039091C00095FFD4
:10045000FCCF8093C6000895895CE8CF27E3290F7D
:10046000CCCF995CAECF37E3320F91CF8091E803C8
:1004700081110BC01092C50089E18093C40088E10E
:100480008093C10081E08093E8038091C00085FFE4
:10049000FCCF84E08093C600FFCF2F923F924F9213
:1004A0005F926F927F928F929F92AF92BF92CF9204
:1004B000DF92EF92FF920F931F93CF93DF93CDB70D
:1004C000DEB7E5970FB6F894DEBF0FBECDBF9C0137
:1004D0004B0190E1FB01DE01519601900D929A953E
:1004E000E1F790E1F901DE01119601900D929A95E4
:1004F000E1F72980AA80AAA6CB80CBA2DC80DCA26F
:100500000D810DA32E812EA33F813FA3488548A7CF
:10051000698569A7BA843B844C845D846E847F843A
:10052000C88819895A894B89EC89FD882E897F8969
:10053000888D8CA7998D6A8DDB8C0C8D8D8D3E8D71
:10054000AF8DABA7E8A0AA24A394DE019196BAA32D
:10055000A9A3F62D652C572C742CD401832C3C2C8C
:10056000CCA49B2CBBA4452C5F2E12251C93FAA572
:100570005F2711965C931197FBA14F2712964C931E
:100580001297FCA1FE27F9AB1396FC931397EDA1EC
:10059000FE261496FC921497FEA1F227FAAB15964C
:1005A000FC9315972FA1722716967C931697E8A5B2
:1005B000EC25EBAB1796EC931797F9A59F271896A8
:1005C0009C931897692519966C931997D824DBA6E4
:1005D0001A96DC921A9707250CA71B960C931B976B
:1005E00086251C968C931C9735253DA71D963C931C
:1005F0001D97B424BEA61E96BC921E97E324EFA6B8
:100600001F96EC921F972CE6C22EAC1409F429C158
:100610003A2D330F330B3B710A2D000F032708AB24
:10062000C52CD12C9601205A3D4FF9013081A326CB
:100630002A24C42CD12C9601205A3D4FF901308137
:10064000FAA5F327FAA7C32CD12C9601205A3D4FC7
:10065000F9013081FBA1F327FBA3C62CD12C960115
:10066000205A3D4FF9013081FCA1F327FCA3ADA036
:10067000A224ADA2CEA0DAA4CD24CEA20FA12BA19C
:1006800002270FA338A53F2738A7E9A5EA25E9A740
:100690009C24802673266E26592448243724012F53
:1006A00010E0005A1D4FF8011081198BC52ED12C76
:1006B0009601205A3D4FF90130813E8F50E0405A5B
:1006C0005D4FFA01D080DB8EF9A94F2F50E0405AE0
:1006D0005D4FFA01C080C88E4F2D50E0405A5D4FEB
:1006E000FA01F080FD8AFAA94F2F50E0405A5D4F81
:1006F000FA0150815A8BA72EB12CF501E05AFD4F1B
:10070000B080BF8EABA8EA2DF0E0E05AFD4F00812B
:100710000C8FE92FF0E0E05AFD4F9081998FE62F82
:10072000F0E0E05AFD4F20812E8B4BA5E42FF0E046
:10073000E05AFD4F40814B8B6CA5E62FF0E0E05A6C
:10074000FD4FE080E8A2E82FF0E0E05AFD4F808105
:100750008D8F7DA5E72FF0E0E05AFD4F60816A8F15
:10076000AEA4EA2DF0E0E05AFD4F70817F8BAFA47C
:10077000EA2DF0E0E05AFD4FE081EC8BF8A9FC3661
:1007800009F46DC0FE017196AE014E5E5F4F9E0191
:100790002D5E3F4FCE014496BC018D015DAB4CAB4D
:1007A000A9019081ACA9BDA9CC90DA01DC90DB0154
:1007B000FC902C2D29273F2D3D25E32EE2268E2D62
:1007C0008927B22EBB0C8B25220F220B2B712827D9
:1007D00020838D2D8C259F25292F2827C226B82ED2
:1007E000BB0CCB24880F880B8B718C25ACA9BDA9C1
:1007F0008C93ED24D32EDD0CED24330F330B3B71A2
:100800003E25DA013C932F25F92EFF0C2F25990F59
:10081000990B9B719227DB019C9334962CA93DA9DF
:100820002C5F3F4F3DAB2CAB4C5F5F4F6C5F7F4FFE
:1008300089A19AA1E817F90709F0B3CFD80119895E
:100840005A894B89EC89FD882E897F89C88C998DBE
:100850006A8DDB8C0C8D8D8D3E8DBF8CE8A0A8A899
:1008600084CEE5960FB6F894DEBF0FBECDBFDF9104
:10087000CF911F910F91FF90EF90DF90CF90BF909D
:10088000AF909F908F907F906F905F904F903F9030
:100890002F900895AF92BF92DF92EF92FF920F9345
:1008A0001F93CF93DF93CDB7DEB760970FB6F89461
:1008B000DEBF0FBECDBFD82E8B017A015901882330
:1008C00009F4E6C0FB019785F80180818983818165
:1008D0008A8382818B8383818C8384818D838581CC
:1008E0008E8386818F8387818887808589878185AC
:1008F0008A8782858B8783858C8784858D8785858C
:100900008E8786858F87988BBE016F5F7F4FC5016D
:100910000E944D029D2DF0E1FD1508F490E1F701D4
:100920002081898182278083913009F45DC0F7019D
:1009300021818A8182278183923009F455C02281E6
:100940008B8182278283933009F44EC023818C816E
:1009500082278383943009F447C024818D818227C4
:100960008483953009F440C025818E818227858358
:100970009630D1F126818F81822786839730A1F12D
:100980002781888582278783983071F12085898522
:1009900082278087993041F121858A858227818746
:1009A0009A3011F122858B85822782879B30E1F076
:1009B00023858C85822783879C30B1F024858D85A3
:1009C000822784879D3081F025858E8582278587C3
:1009D0009E3051F026858F8582278687903121F4BD
:1009E0002785888982278787D91AE90EF11CF801A3
:1009F00097859F5F9787911149C036853F5F3687FE
:100A0000311144C085858F5F858781113FC0848502
:100A10008F5F848781113AC083858F5F83878111BF
:100A200035C082858F5F8287811130C081858F5F5D
:100A3000818781112BC080858F5F8087811126C0BF
:100A400087818F5F8783811121C086818F5F868335
:100A500081111CC085818F5F8583811117C08481BE
:100A60008F5F8483811112C083818F5F83838111A3
:100A70000DC082818F5F8283811108C081818F5F69
:100A80008183811103C080818F5F8083D1101CCF4F
:100A900060960FB6F894DEBF0FBECDBFDF91CF9149
:100AA0001F910F91FF90EF90DF90BF90AF9008954E
:100AB0002F923F924F925F926F927F928F929F926E
:100AC000AF92BF92CF92DF92EF92FF920F931F935C
:100AD000CF93DF93CDB7DEB7A6970FB6F894DEBFFE
:100AE0000FBECDBF84E693E00E94A00081E089A301
:100AF000512C612C712CA12CB12C212C312CC12C0E
:100B0000D12CFE0171967F018E010F5D1F4F20E1F8
:100B1000422EEDA3FEA2F601E052FE4FADA1BEA112
:100B2000842D01900D928A95E1F7F601E05EFD4F6C
:100B3000DE011196842D01900D928A95E1F7B7019F
:100B4000CE0101960E944D0240E150E0B601605690
:100B50007E4FC7010E9465079CA38BA381E893E0A9
:100B60000E94A00080E693E00E94A000CE010196C2
:100B70004C01F40181914F010E9484018E149F0465
:100B8000C1F78CEA93E00E94A00085E893E00E9400
:100B9000A00080E693E00E94A0004701F40181914B
:100BA0004F010E94840180169106C1F78CEA93E000
:100BB0000E94A0008CE893E00E94A00029A1352D9E
:100BC000A301B501C1010E94BE0080E693E00E942E
:100BD000A0008BA19CA1892B09F0FBC08FE993E0B9
:100BE0000E94A00090E1C90ED11C29A1352DA301BE
:100BF000B501C101A1E00E944D0729A3532E3A017E
:100C00005B011C01E0E4CE16D10409F084CF8EEA2A
:100C100093E00E94A00081E893E00E94A00080E69B
:100C200093E00E94A00090E9C92E91E0D92EF60130
:100C300081916F010E948401F0EACF16F1E0DF0696
:100C4000B1F78CEA93E00E94A00080E491E09AA3BF
:100C500089A3E0E0F1E0FCA3EBA344244394512CEE
:100C6000612C712CA12CB12C212C312C8BEC93E01C
:100C70000E94A00080E693E00E94A00080E8C82EB9
:100C800081E0D82EF60181916F010E948401F0E984
:100C9000CF16F1E0DF06B1F78CEA93E00E94A000E6
:100CA0008FEC93E00E94A00080E693E00E94A000F9
:100CB000C9A0DAA080E1C80ED11C89A09AA0F401D5
:100CC00081914F010E9484018C149D04C1F78CEA2C
:100CD00093E00E94A000E9A1FAA1DE01519680E113
:100CE00001900D928A95E1F720E931E0A70160E8D3
:100CF00071E080E10E944A0440E150E06BA17CA1D8
:100D0000C7010E9465079AA389A385E893E00E9422
:100D1000A00080E693E00E94A0004701F4018191C9
:100D20004F010E94840180169106C1F78CEA93E07E
:100D30000E94A00085ED93E00E94A0009201A30113
:100D4000B501C1010E94BE0080E693E00E94A000B0
:100D500089A19AA1892BC1F58FE993E00E94A00097
:100D60009201A301B501C101A1E00E944D07290133
:100D70003A015B011C01EBA1FCA17096FCA3EBA363
:100D8000DAA2C9A2A5E00E94590709F06FCF0E941C
:100D9000360280E090E0A6960FB6F894DEBF0FBE54
:100DA000CDBFDF91CF911F910F91FF90EF90DF901A
:100DB000CF90BF90AF909F908F907F906F905F90FB
:100DC0004F903F902F90089584EA93E00E94A000F6
:100DD000C7CF84EA93E00E94A00004CF689401C0CA
:100DE000E8948F929F92CF93DF930E94FC06DF914D
:100DF000CF919F908F90089588249924F401E40165
:100E0000B0E49F93AA279A158B049C04ED05FE0578
:100E1000CF05D007A10798F4AD2FDC2FCF2FFE2FE1
:100E2000E92D982C892E982F872F762F652F542FF8
:100E3000432F322F2227B85031F7BF9127C01B2EE6
:100E4000BF91BB27220F331F441F551F661F771FFB
:100E5000881F991F881C991CEE1FFF1FCC1FDD1FC8
:100E6000AA1FBB1F8A149B04EC05FD05CE05DF05F8
:100E7000A007B10748F08A189B08EC09FD09CE09C4
:100E8000DF09A00BB10B21601A94E1F62EF4940156
:100E9000AF01BE01CD01000C08950024A7FD009410
:100EA0002A0F301D401D501D601D701D801D901D9E
:100EB00008950024A7FD00942A1730054005500529
:100EC00060057005800590050895FB01DC0104C0F4
:100ED0008D910190801921F441505040C8F7881B32
:080EE000990B0895F894FFCF6F
:100EE800874D6191B620E3261BEF6864990DB6CE55
:100EF8009806F66B7970FDFF8617187BB9FFFDFF22
:100F08005AE4DF3EDBD5D35E5B4F09020DB03EAB42
:100F18001E031DDA2FBE03D1792170A0F3009CEEC9
:100F28006BC1BEE22E409F96E93D7E117393172A4E
:100F3800AE2D8A571E03AC9C9EB76FAC45AF8E5141
:100F480030C81C46A35CE411E5FBC1191A0A52EF2C
:100F5800F69F2445DF4F9B17AD2B417BE66C37107E
:100F6800F0F1F2F3F4F5F6F7F8F9FAFBFCFDFEFF01
:100F78002B7E151628AED2A6ABF7158809CF4F3CA5
:100F88003AD77BB40D7A3660A89ECAF32466EF97E9
:100F9800F5D3D58503B9699DE785895A96FDBAAF1A
:100FA80043B1CD7F598ECE23881B00E3ED0306881D
:100FB8007B0C785E27E8AD3F8223207104725DD4F4
:100FC8006BC1BEE22E409F96E93D7E117393172AAE
:100FD800AE2D8A571E03AC9C9EB76FAC45AF8E51A1
:100FE80030C81C46A35CE411E5FBC1191A0A52EF8C
:100FF800F69F2445DF4F9B17AD2B417BE66C3710DE
:101008002B7E151628AED2A6ABF7158809CF4F3C14
:101018002B7E151628AED2A6ABF7158809CF4F3C04
:101028002B7E151628AED2A6ABF7158809CF4F3CF4
:101038002B7E151628AED2A6ABF7158809CF4F3CE4
:10104800637C777BF26B6FC53001672BFED7AB767D
:10105800CA82C97DFA5947F0ADD4A2AF9CA472C028
:10106800B7FD9326363FF7CC34A5E5F171D8311595
:1010780004C723C31896059A071280E2EB27B275B6
:1010880009832C1A1B6E5AA0523BD6B329E32F842E
:1010980053D100ED20FCB15B6ACBBE394A4C58CF26
:1010A800D0EFAAFB434D338545F9027F503C9FA8FA
:1010B80051A3408F929D38F5BCB6DA2110FFF3D2C8
:1010C800CD0C13EC5F974417C4A77E3D645D19737C
:1010D80060814FDC222A908846EEB814DE5E0BDB76
:1010E800E0323A0A4906245CC2D3AC629195E479AD
:1010F800E7C8376D8DD54EA96C56F4EA657AAE0807
:10110800BA78252E1CA6B4C6E8DD741F4BBD8B8AA1
:10111800703EB5664803F60E613557B986C11D9E07
:10112800E1F8981169D98E949B1E87E9CE5528DF7E
:101138008CA1890DBFE6426841992D0FB054BB16AA
:10114800203A20000A2A2A2A2A204145532D3132E2
:1011580038204543422054657374202A2A2A2A0AD3
:10116800006B657900636970686572004145532DAD
:101178003132382045434220546573742023004F90
:101188004B0A0A004641494C45442E0A0A000A2ADD
:101198002A2A2A204145532D3132382043545220DF
:1011A80054657374202A2A2A2A0A0063747200700C
:1011B8006C61696E004145532D31323820435452D9
:0811C80020546573742023001C
:00000001FF
